{
  "_format": "hh-sol-artifact-1",
  "contractName": "NFT721AToken",
  "sourceName": "contracts/NFT721AToken.sol",
  "abi": [
    {
      "inputs": [
        {
          "internalType": "uint256",
          "name": "interval",
          "type": "uint256"
        }
      ],
      "stateMutability": "nonpayable",
      "type": "constructor"
    },
    {
      "inputs": [],
      "name": "ApprovalCallerNotOwnerNorApproved",
      "type": "error"
    },
    {
      "inputs": [],
      "name": "ApprovalQueryForNonexistentToken",
      "type": "error"
    },
    {
      "inputs": [],
      "name": "BalanceQueryForZeroAddress",
      "type": "error"
    },
    {
      "inputs": [],
      "name": "MintERC2309QuantityExceedsLimit",
      "type": "error"
    },
    {
      "inputs": [],
      "name": "MintToZeroAddress",
      "type": "error"
    },
    {
      "inputs": [],
      "name": "MintZeroQuantity",
      "type": "error"
    },
    {
      "inputs": [],
      "name": "OwnerQueryForNonexistentToken",
      "type": "error"
    },
    {
      "inputs": [],
      "name": "OwnershipNotInitializedForExtraData",
      "type": "error"
    },
    {
      "inputs": [],
      "name": "TransferCallerNotOwnerNorApproved",
      "type": "error"
    },
    {
      "inputs": [],
      "name": "TransferFromIncorrectOwner",
      "type": "error"
    },
    {
      "inputs": [],
      "name": "TransferToNonERC721ReceiverImplementer",
      "type": "error"
    },
    {
      "inputs": [],
      "name": "TransferToZeroAddress",
      "type": "error"
    },
    {
      "inputs": [],
      "name": "URIQueryForNonexistentToken",
      "type": "error"
    },
    {
      "anonymous": false,
      "inputs": [
        {
          "indexed": true,
          "internalType": "address",
          "name": "owner",
          "type": "address"
        },
        {
          "indexed": true,
          "internalType": "address",
          "name": "approved",
          "type": "address"
        },
        {
          "indexed": true,
          "internalType": "uint256",
          "name": "tokenId",
          "type": "uint256"
        }
      ],
      "name": "Approval",
      "type": "event"
    },
    {
      "anonymous": false,
      "inputs": [
        {
          "indexed": true,
          "internalType": "address",
          "name": "owner",
          "type": "address"
        },
        {
          "indexed": true,
          "internalType": "address",
          "name": "operator",
          "type": "address"
        },
        {
          "indexed": false,
          "internalType": "bool",
          "name": "approved",
          "type": "bool"
        }
      ],
      "name": "ApprovalForAll",
      "type": "event"
    },
    {
      "anonymous": false,
      "inputs": [
        {
          "indexed": true,
          "internalType": "uint256",
          "name": "fromTokenId",
          "type": "uint256"
        },
        {
          "indexed": false,
          "internalType": "uint256",
          "name": "toTokenId",
          "type": "uint256"
        },
        {
          "indexed": true,
          "internalType": "address",
          "name": "from",
          "type": "address"
        },
        {
          "indexed": true,
          "internalType": "address",
          "name": "to",
          "type": "address"
        }
      ],
      "name": "ConsecutiveTransfer",
      "type": "event"
    },
    {
      "anonymous": false,
      "inputs": [
        {
          "indexed": true,
          "internalType": "address",
          "name": "previousOwner",
          "type": "address"
        },
        {
          "indexed": true,
          "internalType": "address",
          "name": "newOwner",
          "type": "address"
        }
      ],
      "name": "OwnershipTransferred",
      "type": "event"
    },
    {
      "anonymous": false,
      "inputs": [
        {
          "indexed": true,
          "internalType": "address",
          "name": "from",
          "type": "address"
        },
        {
          "indexed": true,
          "internalType": "address",
          "name": "to",
          "type": "address"
        },
        {
          "indexed": true,
          "internalType": "uint256",
          "name": "tokenId",
          "type": "uint256"
        }
      ],
      "name": "Transfer",
      "type": "event"
    },
    {
      "inputs": [
        {
          "internalType": "address",
          "name": "to",
          "type": "address"
        },
        {
          "internalType": "uint256",
          "name": "tokenId",
          "type": "uint256"
        }
      ],
      "name": "approve",
      "outputs": [],
      "stateMutability": "payable",
      "type": "function"
    },
    {
      "inputs": [
        {
          "internalType": "address",
          "name": "owner",
          "type": "address"
        }
      ],
      "name": "balanceOf",
      "outputs": [
        {
          "internalType": "uint256",
          "name": "",
          "type": "uint256"
        }
      ],
      "stateMutability": "view",
      "type": "function"
    },
    {
      "inputs": [],
      "name": "baseURI",
      "outputs": [
        {
          "internalType": "string",
          "name": "",
          "type": "string"
        }
      ],
      "stateMutability": "view",
      "type": "function"
    },
    {
      "inputs": [
        {
          "internalType": "bytes",
          "name": "",
          "type": "bytes"
        }
      ],
      "name": "checkUpkeep",
      "outputs": [
        {
          "internalType": "bool",
          "name": "upkeepNeeded",
          "type": "bool"
        },
        {
          "internalType": "bytes",
          "name": "",
          "type": "bytes"
        }
      ],
      "stateMutability": "view",
      "type": "function"
    },
    {
      "inputs": [
        {
          "internalType": "string[]",
          "name": "tokenURIInfo",
          "type": "string[]"
        }
      ],
      "name": "createToken",
      "outputs": [],
      "stateMutability": "payable",
      "type": "function"
    },
    {
      "inputs": [
        {
          "internalType": "uint256",
          "name": "tokenId",
          "type": "uint256"
        }
      ],
      "name": "getApproved",
      "outputs": [
        {
          "internalType": "address",
          "name": "",
          "type": "address"
        }
      ],
      "stateMutability": "view",
      "type": "function"
    },
    {
      "inputs": [
        {
          "internalType": "uint256",
          "name": "tokenId",
          "type": "uint256"
        }
      ],
      "name": "getIPFSURL",
      "outputs": [
        {
          "internalType": "string",
          "name": "",
          "type": "string"
        }
      ],
      "stateMutability": "view",
      "type": "function"
    },
    {
      "inputs": [],
      "name": "getNonWhiteListMinPrice",
      "outputs": [
        {
          "internalType": "uint256",
          "name": "",
          "type": "uint256"
        }
      ],
      "stateMutability": "view",
      "type": "function"
    },
    {
      "inputs": [],
      "name": "getWhiteListMinPrice",
      "outputs": [
        {
          "internalType": "uint256",
          "name": "",
          "type": "uint256"
        }
      ],
      "stateMutability": "view",
      "type": "function"
    },
    {
      "inputs": [],
      "name": "incentiveToken",
      "outputs": [
        {
          "internalType": "contract IncentiveToken",
          "name": "",
          "type": "address"
        }
      ],
      "stateMutability": "view",
      "type": "function"
    },
    {
      "inputs": [
        {
          "internalType": "address",
          "name": "owner",
          "type": "address"
        },
        {
          "internalType": "address",
          "name": "operator",
          "type": "address"
        }
      ],
      "name": "isApprovedForAll",
      "outputs": [
        {
          "internalType": "bool",
          "name": "",
          "type": "bool"
        }
      ],
      "stateMutability": "view",
      "type": "function"
    },
    {
      "inputs": [],
      "name": "mintRate",
      "outputs": [
        {
          "internalType": "uint256",
          "name": "",
          "type": "uint256"
        }
      ],
      "stateMutability": "view",
      "type": "function"
    },
    {
      "inputs": [],
      "name": "name",
      "outputs": [
        {
          "internalType": "string",
          "name": "",
          "type": "string"
        }
      ],
      "stateMutability": "view",
      "type": "function"
    },
    {
      "inputs": [],
      "name": "nonWhiteMintListPrice",
      "outputs": [
        {
          "internalType": "uint256",
          "name": "",
          "type": "uint256"
        }
      ],
      "stateMutability": "view",
      "type": "function"
    },
    {
      "inputs": [],
      "name": "owner",
      "outputs": [
        {
          "internalType": "address",
          "name": "",
          "type": "address"
        }
      ],
      "stateMutability": "view",
      "type": "function"
    },
    {
      "inputs": [
        {
          "internalType": "uint256",
          "name": "tokenId",
          "type": "uint256"
        }
      ],
      "name": "ownerOf",
      "outputs": [
        {
          "internalType": "address",
          "name": "",
          "type": "address"
        }
      ],
      "stateMutability": "view",
      "type": "function"
    },
    {
      "inputs": [
        {
          "internalType": "bytes",
          "name": "",
          "type": "bytes"
        }
      ],
      "name": "performUpkeep",
      "outputs": [],
      "stateMutability": "nonpayable",
      "type": "function"
    },
    {
      "inputs": [],
      "name": "renounceOwnership",
      "outputs": [],
      "stateMutability": "nonpayable",
      "type": "function"
    },
    {
      "inputs": [
        {
          "internalType": "address",
          "name": "from",
          "type": "address"
        },
        {
          "internalType": "address",
          "name": "to",
          "type": "address"
        },
        {
          "internalType": "uint256",
          "name": "tokenId",
          "type": "uint256"
        }
      ],
      "name": "safeTransferFrom",
      "outputs": [],
      "stateMutability": "payable",
      "type": "function"
    },
    {
      "inputs": [
        {
          "internalType": "address",
          "name": "from",
          "type": "address"
        },
        {
          "internalType": "address",
          "name": "to",
          "type": "address"
        },
        {
          "internalType": "uint256",
          "name": "tokenId",
          "type": "uint256"
        },
        {
          "internalType": "bytes",
          "name": "_data",
          "type": "bytes"
        }
      ],
      "name": "safeTransferFrom",
      "outputs": [],
      "stateMutability": "payable",
      "type": "function"
    },
    {
      "inputs": [
        {
          "internalType": "address",
          "name": "operator",
          "type": "address"
        },
        {
          "internalType": "bool",
          "name": "approved",
          "type": "bool"
        }
      ],
      "name": "setApprovalForAll",
      "outputs": [],
      "stateMutability": "nonpayable",
      "type": "function"
    },
    {
      "inputs": [
        {
          "internalType": "uint256",
          "name": "_mintRate",
          "type": "uint256"
        }
      ],
      "name": "setMintRate",
      "outputs": [],
      "stateMutability": "nonpayable",
      "type": "function"
    },
    {
      "inputs": [
        {
          "internalType": "bytes4",
          "name": "interfaceId",
          "type": "bytes4"
        }
      ],
      "name": "supportsInterface",
      "outputs": [
        {
          "internalType": "bool",
          "name": "",
          "type": "bool"
        }
      ],
      "stateMutability": "view",
      "type": "function"
    },
    {
      "inputs": [],
      "name": "symbol",
      "outputs": [
        {
          "internalType": "string",
          "name": "",
          "type": "string"
        }
      ],
      "stateMutability": "view",
      "type": "function"
    },
    {
      "inputs": [
        {
          "internalType": "uint256",
          "name": "tokenId",
          "type": "uint256"
        }
      ],
      "name": "tokenURI",
      "outputs": [
        {
          "internalType": "string",
          "name": "",
          "type": "string"
        }
      ],
      "stateMutability": "view",
      "type": "function"
    },
    {
      "inputs": [],
      "name": "totalSupply",
      "outputs": [
        {
          "internalType": "uint256",
          "name": "",
          "type": "uint256"
        }
      ],
      "stateMutability": "view",
      "type": "function"
    },
    {
      "inputs": [
        {
          "internalType": "address",
          "name": "from",
          "type": "address"
        },
        {
          "internalType": "address",
          "name": "to",
          "type": "address"
        },
        {
          "internalType": "uint256",
          "name": "tokenId",
          "type": "uint256"
        }
      ],
      "name": "transferFrom",
      "outputs": [],
      "stateMutability": "payable",
      "type": "function"
    },
    {
      "inputs": [
        {
          "internalType": "address",
          "name": "newOwner",
          "type": "address"
        }
      ],
      "name": "transferOwnership",
      "outputs": [],
      "stateMutability": "nonpayable",
      "type": "function"
    },
    {
      "inputs": [
        {
          "internalType": "string",
          "name": "",
          "type": "string"
        }
      ],
      "name": "uriToIpsfsUri",
      "outputs": [
        {
          "internalType": "string",
          "name": "",
          "type": "string"
        }
      ],
      "stateMutability": "view",
      "type": "function"
    },
    {
      "inputs": [],
      "name": "whiteMintListPrice",
      "outputs": [
        {
          "internalType": "uint256",
          "name": "",
          "type": "uint256"
        }
      ],
      "stateMutability": "view",
      "type": "function"
    },
    {
      "inputs": [],
      "name": "withdraw",
      "outputs": [],
      "stateMutability": "payable",
      "type": "function"
    }
  ],
  "bytecode": "0x60a060405260326009556004600a556512309ce54000600b5566038d7ea4c68000600c5566071afd498d0000600d556040518060400160405280600781526020017f697066733a2f2f00000000000000000000000000000000000000000000000000815250600f908162000074919062000563565b5066038d7ea4c6800060105566b1a2bc2ec500006011553480156200009857600080fd5b5060405162005567380380620055678339818101604052810190620000be919062000680565b6040518060400160405280600781526020017f43616c536f6674000000000000000000000000000000000000000000000000008152506040518060400160405280600281526020017f435300000000000000000000000000000000000000000000000000000000000081525081600290816200013b919062000563565b5080600390816200014d919062000563565b506200015e6200020860201b60201c565b6000819055505050620001866200017a6200020d60201b60201c565b6200021560201b60201c565b6040516200019490620002db565b604051809103906000f080158015620001b1573d6000803e3d6000fd5b50601660006101000a81548173ffffffffffffffffffffffffffffffffffffffff021916908373ffffffffffffffffffffffffffffffffffffffff16021790555080608081815250504260128190555050620006b2565b600090565b600033905090565b6000600860009054906101000a900473ffffffffffffffffffffffffffffffffffffffff16905081600860006101000a81548173ffffffffffffffffffffffffffffffffffffffff021916908373ffffffffffffffffffffffffffffffffffffffff1602179055508173ffffffffffffffffffffffffffffffffffffffff168173ffffffffffffffffffffffffffffffffffffffff167f8be0079c531659141344cd1fd0a4f28419497f9722a3daafe3b4186f6b6457e060405160405180910390a35050565b6118f88062003c6f83390190565b600081519050919050565b7f4e487b7100000000000000000000000000000000000000000000000000000000600052604160045260246000fd5b7f4e487b7100000000000000000000000000000000000000000000000000000000600052602260045260246000fd5b600060028204905060018216806200036b57607f821691505b60208210810362000381576200038062000323565b5b50919050565b60008190508160005260206000209050919050565b60006020601f8301049050919050565b600082821b905092915050565b600060088302620003eb7fffffffffffffffffffffffffffffffffffffffffffffffffffffffffffffffff82620003ac565b620003f78683620003ac565b95508019841693508086168417925050509392505050565b6000819050919050565b6000819050919050565b6000620004446200043e62000438846200040f565b62000419565b6200040f565b9050919050565b6000819050919050565b620004608362000423565b620004786200046f826200044b565b848454620003b9565b825550505050565b600090565b6200048f62000480565b6200049c81848462000455565b505050565b5b81811015620004c457620004b860008262000485565b600181019050620004a2565b5050565b601f8211156200051357620004dd8162000387565b620004e8846200039c565b81016020851015620004f8578190505b6200051062000507856200039c565b830182620004a1565b50505b505050565b600082821c905092915050565b6000620005386000198460080262000518565b1980831691505092915050565b600062000553838362000525565b9150826002028217905092915050565b6200056e82620002e9565b67ffffffffffffffff8111156200058a5762000589620002f4565b5b62000596825462000352565b620005a3828285620004c8565b600060209050601f831160018114620005db5760008415620005c6578287015190505b620005d2858262000545565b86555062000642565b601f198416620005eb8662000387565b60005b828110156200061557848901518255600182019150602085019450602081019050620005ee565b8683101562000635578489015162000631601f89168262000525565b8355505b6001600288020188555050505b505050505050565b600080fd5b6200065a816200040f565b81146200066657600080fd5b50565b6000815190506200067a816200064f565b92915050565b6000602082840312156200069957620006986200064a565b5b6000620006a98482850162000669565b91505092915050565b6080516135a1620006ce600039600061110301526135a16000f3fe6080604052600436106101d85760003560e01c80636c0360eb11610102578063b88d4fde11610095578063dbe2193f11610064578063dbe2193f14610682578063dd01b233146106ab578063e985e9c5146106c7578063f2fde38b14610704576101d8565b8063b88d4fde146105d3578063c20ce5e8146105ef578063c87b56dd1461061a578063ca0dcf1614610657576101d8565b80638da5cb5b116100d15780638da5cb5b146105295780638fd30bb41461055457806395d89b411461057f578063a22cb465146105aa576101d8565b80636c0360eb1461046c5780636e04ff0d1461049757806370a08231146104d5578063715018a614610512576101d8565b80631f9dc04a1161017a5780634585e33b116101495780634585e33b146103b057806354011a2e146103d95780636352211e14610404578063638126f814610441576101d8565b80631f9dc04a1461033157806323b872dd1461036e5780633ccfd60b1461038a57806342842e0e14610394576101d8565b8063095ea7b3116101b6578063095ea7b31461028257806310f689f11461029e578063150c1c02146102c957806318160ddd14610306576101d8565b806301ffc9a7146101dd57806306fdde031461021a578063081812fc14610245575b600080fd5b3480156101e957600080fd5b5061020460048036038101906101ff9190612368565b61072d565b60405161021191906123b0565b60405180910390f35b34801561022657600080fd5b5061022f6107bf565b60405161023c919061245b565b60405180910390f35b34801561025157600080fd5b5061026c600480360381019061026791906124b3565b610851565b6040516102799190612521565b60405180910390f35b61029c60048036038101906102979190612568565b6108d0565b005b3480156102aa57600080fd5b506102b3610a14565b6040516102c091906125b7565b60405180910390f35b3480156102d557600080fd5b506102f060048036038101906102eb91906124b3565b610a1e565b6040516102fd919061245b565b60405180910390f35b34801561031257600080fd5b5061031b610af8565b60405161032891906125b7565b60405180910390f35b34801561033d57600080fd5b5061035860048036038101906103539190612707565b610b0f565b604051610365919061245b565b60405180910390f35b61038860048036038101906103839190612750565b610bc5565b005b610392610ee7565b005b6103ae60048036038101906103a99190612750565b610f3f565b005b3480156103bc57600080fd5b506103d760048036038101906103d29190612803565b610f5f565b005b3480156103e557600080fd5b506103ee61102f565b6040516103fb91906125b7565b60405180910390f35b34801561041057600080fd5b5061042b600480360381019061042691906124b3565b611035565b6040516104389190612521565b60405180910390f35b34801561044d57600080fd5b50610456611047565b60405161046391906128af565b60405180910390f35b34801561047857600080fd5b5061048161106d565b60405161048e919061245b565b60405180910390f35b3480156104a357600080fd5b506104be60048036038101906104b9919061296b565b6110fb565b6040516104cc929190612a09565b60405180910390f35b3480156104e157600080fd5b506104fc60048036038101906104f79190612a39565b611188565b60405161050991906125b7565b60405180910390f35b34801561051e57600080fd5b50610527611240565b005b34801561053557600080fd5b5061053e611254565b60405161054b9190612521565b60405180910390f35b34801561056057600080fd5b5061056961127e565b60405161057691906125b7565b60405180910390f35b34801561058b57600080fd5b50610594611284565b6040516105a1919061245b565b60405180910390f35b3480156105b657600080fd5b506105d160048036038101906105cc9190612a92565b611316565b005b6105ed60048036038101906105e89190612ad2565b611421565b005b3480156105fb57600080fd5b50610604611494565b60405161061191906125b7565b60405180910390f35b34801561062657600080fd5b50610641600480360381019061063c91906124b3565b61149e565b60405161064e919061245b565b60405180910390f35b34801561066357600080fd5b5061066c61153c565b60405161067991906125b7565b60405180910390f35b34801561068e57600080fd5b506106a960048036038101906106a491906124b3565b611542565b005b6106c560048036038101906106c09190612c36565b611554565b005b3480156106d357600080fd5b506106ee60048036038101906106e99190612c7f565b61175e565b6040516106fb91906123b0565b60405180910390f35b34801561071057600080fd5b5061072b60048036038101906107269190612a39565b6117f2565b005b60006301ffc9a760e01b827bffffffffffffffffffffffffffffffffffffffffffffffffffffffff1916148061078857506380ac58cd60e01b827bffffffffffffffffffffffffffffffffffffffffffffffffffffffff1916145b806107b85750635b5e139f60e01b827bffffffffffffffffffffffffffffffffffffffffffffffffffffffff1916145b9050919050565b6060600280546107ce90612cee565b80601f01602080910402602001604051908101604052809291908181526020018280546107fa90612cee565b80156108475780601f1061081c57610100808354040283529160200191610847565b820191906000526020600020905b81548152906001019060200180831161082a57829003601f168201915b5050505050905090565b600061085c82611875565b610892576040517fcf4700e400000000000000000000000000000000000000000000000000000000815260040160405180910390fd5b6006600083815260200190815260200160002060000160009054906101000a900473ffffffffffffffffffffffffffffffffffffffff169050919050565b60006108db82611035565b90508073ffffffffffffffffffffffffffffffffffffffff166108fc6118d4565b73ffffffffffffffffffffffffffffffffffffffff161461095f57610928816109236118d4565b61175e565b61095e576040517fcfb3b94200000000000000000000000000000000000000000000000000000000815260040160405180910390fd5b5b826006600084815260200190815260200160002060000160006101000a81548173ffffffffffffffffffffffffffffffffffffffff021916908373ffffffffffffffffffffffffffffffffffffffff160217905550818373ffffffffffffffffffffffffffffffffffffffff168273ffffffffffffffffffffffffffffffffffffffff167f8c5be1e5ebec7d5bd14f71427d1e84f3dd0314c0f7b2291e5b200ac8c7c3b92560405160405180910390a4505050565b6000600d54905090565b60606015600f610a2d846118dc565b604051602001610a3e929190612df3565b604051602081830303815290604052604051610a5a9190612e17565b90815260200160405180910390208054610a7390612cee565b80601f0160208091040260200160405190810160405280929190818152602001828054610a9f90612cee565b8015610aec5780601f10610ac157610100808354040283529160200191610aec565b820191906000526020600020905b815481529060010190602001808311610acf57829003601f168201915b50505050509050919050565b6000610b026119aa565b6001546000540303905090565b6015818051602081018201805184825260208301602085012081835280955050505050506000915090508054610b4490612cee565b80601f0160208091040260200160405190810160405280929190818152602001828054610b7090612cee565b8015610bbd5780601f10610b9257610100808354040283529160200191610bbd565b820191906000526020600020905b815481529060010190602001808311610ba057829003601f168201915b505050505081565b6000610bd0826119af565b90508373ffffffffffffffffffffffffffffffffffffffff168173ffffffffffffffffffffffffffffffffffffffff1614610c37576040517fa114810000000000000000000000000000000000000000000000000000000000815260040160405180910390fd5b600080610c4384611a7b565b91509150610c598187610c546118d4565b611aa2565b610ca557610c6e86610c696118d4565b61175e565b610ca4576040517f59c896be00000000000000000000000000000000000000000000000000000000815260040160405180910390fd5b5b600073ffffffffffffffffffffffffffffffffffffffff168573ffffffffffffffffffffffffffffffffffffffff1603610d0b576040517fea553b3400000000000000000000000000000000000000000000000000000000815260040160405180910390fd5b610d188686866001611ae6565b8015610d2357600082555b600560008773ffffffffffffffffffffffffffffffffffffffff1673ffffffffffffffffffffffffffffffffffffffff168152602001908152602001600020600081546001900391905081905550600560008673ffffffffffffffffffffffffffffffffffffffff1673ffffffffffffffffffffffffffffffffffffffff1681526020019081526020016000206000815460010191905081905550610df185610dcd888887611aec565b7c020000000000000000000000000000000000000000000000000000000017611b14565b600460008681526020019081526020016000208190555060007c0200000000000000000000000000000000000000000000000000000000841603610e775760006001850190506000600460008381526020019081526020016000205403610e75576000548114610e74578360046000838152602001908152602001600020819055505b5b505b838573ffffffffffffffffffffffffffffffffffffffff168773ffffffffffffffffffffffffffffffffffffffff167fddf252ad1be2c89b69c2b068fc378daa952ba7f163c4a11628f55a4df523b3ef60405160405180910390a4610edf8686866001611b3f565b505050505050565b610eef611b45565b610ef7611254565b73ffffffffffffffffffffffffffffffffffffffff166108fc479081150290604051600060405180830381858888f19350505050158015610f3c573d6000803e3d6000fd5b50565b610f5a83838360405180602001604052806000815250611421565b505050565b6000610f79604051806020016040528060008152506110fb565b5090508061102a576000600a9050601660009054906101000a900473ffffffffffffffffffffffffffffffffffffffff1673ffffffffffffffffffffffffffffffffffffffff1663a9059cbb33836040518363ffffffff1660e01b8152600401610fe4929190612e2e565b6020604051808303816000875af1158015611003573d6000803e3d6000fd5b505050506040513d601f19601f820116820180604052508101906110279190612e6c565b50505b505050565b600c5481565b6000611040826119af565b9050919050565b601660009054906101000a900473ffffffffffffffffffffffffffffffffffffffff1681565b600f805461107a90612cee565b80601f01602080910402602001604051908101604052809291908181526020018280546110a690612cee565b80156110f35780601f106110c8576101008083540402835291602001916110f3565b820191906000526020600020905b8154815290600101906020018083116110d657829003601f168201915b505050505081565b6000606060007f0000000000000000000000000000000000000000000000000000000000000000601254426111309190612ec8565b11905080801561114557506000601380549050115b9250826040518060400160405280600381526020017f30783000000000000000000000000000000000000000000000000000000000008152509250925050915091565b60008073ffffffffffffffffffffffffffffffffffffffff168273ffffffffffffffffffffffffffffffffffffffff16036111ef576040517f8f4eb60400000000000000000000000000000000000000000000000000000000815260040160405180910390fd5b67ffffffffffffffff600560008473ffffffffffffffffffffffffffffffffffffffff1673ffffffffffffffffffffffffffffffffffffffff16815260200190815260200160002054169050919050565b611248611b45565b6112526000611bc3565b565b6000600860009054906101000a900473ffffffffffffffffffffffffffffffffffffffff16905090565b600d5481565b60606003805461129390612cee565b80601f01602080910402602001604051908101604052809291908181526020018280546112bf90612cee565b801561130c5780601f106112e15761010080835404028352916020019161130c565b820191906000526020600020905b8154815290600101906020018083116112ef57829003601f168201915b5050505050905090565b80600760006113236118d4565b73ffffffffffffffffffffffffffffffffffffffff1673ffffffffffffffffffffffffffffffffffffffff16815260200190815260200160002060008473ffffffffffffffffffffffffffffffffffffffff1673ffffffffffffffffffffffffffffffffffffffff16815260200190815260200160002060006101000a81548160ff0219169083151502179055508173ffffffffffffffffffffffffffffffffffffffff166113d06118d4565b73ffffffffffffffffffffffffffffffffffffffff167f17307eab39ab6107e8899845ad3d59bd9653f200f220920489ca2b5937696c318360405161141591906123b0565b60405180910390a35050565b61142c848484610bc5565b60008373ffffffffffffffffffffffffffffffffffffffff163b1461148e5761145784848484611c89565b61148d576040517fd1a57ed600000000000000000000000000000000000000000000000000000000815260040160405180910390fd5b5b50505050565b6000600c54905090565b60606114a982611875565b6114df576040517fa14c4b5000000000000000000000000000000000000000000000000000000000815260040160405180910390fd5b60006114e9611dd9565b905060008151036115095760405180602001604052806000815250611534565b8061151384611e6b565b604051602001611524929190612efc565b6040516020818303038152906040525b915050919050565b600b5481565b61154a611b45565b80600b8190555050565b60008151905060095461156633611ebb565b826115719190612f20565b11156115b2576040517f08c379a00000000000000000000000000000000000000000000000000000000081526004016115a990612fa0565b60405180910390fd5b600a54816115be610af8565b6115c89190612f20565b1115611609576040517f08c379a00000000000000000000000000000000000000000000000000000000081526004016116009061300c565b60405180910390fd5b80600b54611617919061302c565b341015611659576040517f08c379a0000000000000000000000000000000000000000000000000000000008152600401611650906130ba565b60405180910390fd5b6116633382611f12565b6013339080600181540180825580915050600190039060005260206000200160009091909190916101000a81548173ffffffffffffffffffffffffffffffffffffffff021916908373ffffffffffffffffffffffffffffffffffffffff160217905550600060016116d2610af8565b6116dc9190612f20565b90505b816116e8610af8565b6116f29190612f20565b81116117595782818151811061170b5761170a6130da565b5b6020026020010151601561171e8361149e565b60405161172b9190612e17565b908152602001604051809103902090816117459190613296565b50808061175190613368565b9150506116df565b505050565b6000600760008473ffffffffffffffffffffffffffffffffffffffff1673ffffffffffffffffffffffffffffffffffffffff16815260200190815260200160002060008373ffffffffffffffffffffffffffffffffffffffff1673ffffffffffffffffffffffffffffffffffffffff16815260200190815260200160002060009054906101000a900460ff16905092915050565b6117fa611b45565b600073ffffffffffffffffffffffffffffffffffffffff168173ffffffffffffffffffffffffffffffffffffffff1603611869576040517f08c379a000000000000000000000000000000000000000000000000000000000815260040161186090613422565b60405180910390fd5b61187281611bc3565b50565b6000816118806119aa565b1115801561188f575060005482105b80156118cd575060007c0100000000000000000000000000000000000000000000000000000000600460008581526020019081526020016000205416145b9050919050565b600033905090565b6060600060016118eb84611f30565b01905060008167ffffffffffffffff81111561190a576119096125dc565b5b6040519080825280601f01601f19166020018201604052801561193c5781602001600182028036833780820191505090505b509050600082602001820190505b60011561199f578080600190039150507f3031323334353637383961626364656600000000000000000000000000000000600a86061a8153600a858161199357611992613442565b5b0494506000850361194a575b819350505050919050565b600090565b600080829050806119be6119aa565b11611a4457600054811015611a435760006004600083815260200190815260200160002054905060007c0100000000000000000000000000000000000000000000000000000000821603611a41575b60008103611a37576004600083600190039350838152602001908152602001600020549050611a0d565b8092505050611a76565b505b5b6040517fdf2d9b4200000000000000000000000000000000000000000000000000000000815260040160405180910390fd5b919050565b60008060006006600085815260200190815260200160002090508092508254915050915091565b600073ffffffffffffffffffffffffffffffffffffffff8316925073ffffffffffffffffffffffffffffffffffffffff821691508382148383141790509392505050565b50505050565b60008060e883901c905060e8611b03868684612083565b62ffffff16901b9150509392505050565b600073ffffffffffffffffffffffffffffffffffffffff83169250814260a01b178317905092915050565b50505050565b611b4d61208c565b73ffffffffffffffffffffffffffffffffffffffff16611b6b611254565b73ffffffffffffffffffffffffffffffffffffffff1614611bc1576040517f08c379a0000000000000000000000000000000000000000000000000000000008152600401611bb8906134bd565b60405180910390fd5b565b6000600860009054906101000a900473ffffffffffffffffffffffffffffffffffffffff16905081600860006101000a81548173ffffffffffffffffffffffffffffffffffffffff021916908373ffffffffffffffffffffffffffffffffffffffff1602179055508173ffffffffffffffffffffffffffffffffffffffff168173ffffffffffffffffffffffffffffffffffffffff167f8be0079c531659141344cd1fd0a4f28419497f9722a3daafe3b4186f6b6457e060405160405180910390a35050565b60008373ffffffffffffffffffffffffffffffffffffffff1663150b7a02611caf6118d4565b8786866040518563ffffffff1660e01b8152600401611cd194939291906134dd565b6020604051808303816000875af1925050508015611d0d57506040513d601f19601f82011682018060405250810190611d0a919061353e565b60015b611d86573d8060008114611d3d576040519150601f19603f3d011682016040523d82523d6000602084013e611d42565b606091505b506000815103611d7e576040517fd1a57ed600000000000000000000000000000000000000000000000000000000815260040160405180910390fd5b805181602001fd5b63150b7a0260e01b7bffffffffffffffffffffffffffffffffffffffffffffffffffffffff1916817bffffffffffffffffffffffffffffffffffffffffffffffffffffffff191614915050949350505050565b6060600f8054611de890612cee565b80601f0160208091040260200160405190810160405280929190818152602001828054611e1490612cee565b8015611e615780601f10611e3657610100808354040283529160200191611e61565b820191906000526020600020905b815481529060010190602001808311611e4457829003601f168201915b5050505050905090565b606060a060405101806040526020810391506000825281835b600115611ea657600184039350600a81066030018453600a8104905080611e84575b50828103602084039350808452505050919050565b600067ffffffffffffffff6040600560008573ffffffffffffffffffffffffffffffffffffffff1673ffffffffffffffffffffffffffffffffffffffff16815260200190815260200160002054901c169050919050565b611f2c828260405180602001604052806000815250612094565b5050565b600080600090507a184f03e93ff9f4daa797ed6e38ed64bf6a1f0100000000000000008310611f8e577a184f03e93ff9f4daa797ed6e38ed64bf6a1f0100000000000000008381611f8457611f83613442565b5b0492506040810190505b6d04ee2d6d415b85acef81000000008310611fcb576d04ee2d6d415b85acef81000000008381611fc157611fc0613442565b5b0492506020810190505b662386f26fc100008310611ffa57662386f26fc100008381611ff057611fef613442565b5b0492506010810190505b6305f5e1008310612023576305f5e100838161201957612018613442565b5b0492506008810190505b612710831061204857612710838161203e5761203d613442565b5b0492506004810190505b6064831061206b576064838161206157612060613442565b5b0492506002810190505b600a831061207a576001810190505b80915050919050565b60009392505050565b600033905090565b61209e8383612131565b60008373ffffffffffffffffffffffffffffffffffffffff163b1461212c57600080549050600083820390505b6120de6000868380600101945086611c89565b612114576040517fd1a57ed600000000000000000000000000000000000000000000000000000000815260040160405180910390fd5b8181106120cb57816000541461212957600080fd5b50505b505050565b60008054905060008203612171576040517fb562e8dd00000000000000000000000000000000000000000000000000000000815260040160405180910390fd5b61217e6000848385611ae6565b600160406001901b178202600560008573ffffffffffffffffffffffffffffffffffffffff1673ffffffffffffffffffffffffffffffffffffffff168152602001908152602001600020600082825401925050819055506121f5836121e66000866000611aec565b6121ef856122ec565b17611b14565b6004600083815260200190815260200160002081905550600080838301905073ffffffffffffffffffffffffffffffffffffffff85169150828260007fddf252ad1be2c89b69c2b068fc378daa952ba7f163c4a11628f55a4df523b3ef600080a4600183015b81811461229657808360007fddf252ad1be2c89b69c2b068fc378daa952ba7f163c4a11628f55a4df523b3ef600080a460018101905061225b565b50600082036122d1576040517f2e07630000000000000000000000000000000000000000000000000000000000815260040160405180910390fd5b8060008190555050506122e76000848385611b3f565b505050565b60006001821460e11b9050919050565b6000604051905090565b600080fd5b600080fd5b60007fffffffff0000000000000000000000000000000000000000000000000000000082169050919050565b61234581612310565b811461235057600080fd5b50565b6000813590506123628161233c565b92915050565b60006020828403121561237e5761237d612306565b5b600061238c84828501612353565b91505092915050565b60008115159050919050565b6123aa81612395565b82525050565b60006020820190506123c560008301846123a1565b92915050565b600081519050919050565b600082825260208201905092915050565b60005b838110156124055780820151818401526020810190506123ea565b60008484015250505050565b6000601f19601f8301169050919050565b600061242d826123cb565b61243781856123d6565b93506124478185602086016123e7565b61245081612411565b840191505092915050565b600060208201905081810360008301526124758184612422565b905092915050565b6000819050919050565b6124908161247d565b811461249b57600080fd5b50565b6000813590506124ad81612487565b92915050565b6000602082840312156124c9576124c8612306565b5b60006124d78482850161249e565b91505092915050565b600073ffffffffffffffffffffffffffffffffffffffff82169050919050565b600061250b826124e0565b9050919050565b61251b81612500565b82525050565b60006020820190506125366000830184612512565b92915050565b61254581612500565b811461255057600080fd5b50565b6000813590506125628161253c565b92915050565b6000806040838503121561257f5761257e612306565b5b600061258d85828601612553565b925050602061259e8582860161249e565b9150509250929050565b6125b18161247d565b82525050565b60006020820190506125cc60008301846125a8565b92915050565b600080fd5b600080fd5b7f4e487b7100000000000000000000000000000000000000000000000000000000600052604160045260246000fd5b61261482612411565b810181811067ffffffffffffffff82111715612633576126326125dc565b5b80604052505050565b60006126466122fc565b9050612652828261260b565b919050565b600067ffffffffffffffff821115612672576126716125dc565b5b61267b82612411565b9050602081019050919050565b82818337600083830152505050565b60006126aa6126a584612657565b61263c565b9050828152602081018484840111156126c6576126c56125d7565b5b6126d1848285612688565b509392505050565b600082601f8301126126ee576126ed6125d2565b5b81356126fe848260208601612697565b91505092915050565b60006020828403121561271d5761271c612306565b5b600082013567ffffffffffffffff81111561273b5761273a61230b565b5b612747848285016126d9565b91505092915050565b60008060006060848603121561276957612768612306565b5b600061277786828701612553565b935050602061278886828701612553565b92505060406127998682870161249e565b9150509250925092565b600080fd5b600080fd5b60008083601f8401126127c3576127c26125d2565b5b8235905067ffffffffffffffff8111156127e0576127df6127a3565b5b6020830191508360018202830111156127fc576127fb6127a8565b5b9250929050565b6000806020838503121561281a57612819612306565b5b600083013567ffffffffffffffff8111156128385761283761230b565b5b612844858286016127ad565b92509250509250929050565b6000819050919050565b600061287561287061286b846124e0565b612850565b6124e0565b9050919050565b60006128878261285a565b9050919050565b60006128998261287c565b9050919050565b6128a98161288e565b82525050565b60006020820190506128c460008301846128a0565b92915050565b600067ffffffffffffffff8211156128e5576128e46125dc565b5b6128ee82612411565b9050602081019050919050565b600061290e612909846128ca565b61263c565b90508281526020810184848401111561292a576129296125d7565b5b612935848285612688565b509392505050565b600082601f830112612952576129516125d2565b5b81356129628482602086016128fb565b91505092915050565b60006020828403121561298157612980612306565b5b600082013567ffffffffffffffff81111561299f5761299e61230b565b5b6129ab8482850161293d565b91505092915050565b600081519050919050565b600082825260208201905092915050565b60006129db826129b4565b6129e581856129bf565b93506129f58185602086016123e7565b6129fe81612411565b840191505092915050565b6000604082019050612a1e60008301856123a1565b8181036020830152612a3081846129d0565b90509392505050565b600060208284031215612a4f57612a4e612306565b5b6000612a5d84828501612553565b91505092915050565b612a6f81612395565b8114612a7a57600080fd5b50565b600081359050612a8c81612a66565b92915050565b60008060408385031215612aa957612aa8612306565b5b6000612ab785828601612553565b9250506020612ac885828601612a7d565b9150509250929050565b60008060008060808587031215612aec57612aeb612306565b5b6000612afa87828801612553565b9450506020612b0b87828801612553565b9350506040612b1c8782880161249e565b925050606085013567ffffffffffffffff811115612b3d57612b3c61230b565b5b612b498782880161293d565b91505092959194509250565b600067ffffffffffffffff821115612b7057612b6f6125dc565b5b602082029050602081019050919050565b6000612b94612b8f84612b55565b61263c565b90508083825260208201905060208402830185811115612bb757612bb66127a8565b5b835b81811015612bfe57803567ffffffffffffffff811115612bdc57612bdb6125d2565b5b808601612be989826126d9565b85526020850194505050602081019050612bb9565b5050509392505050565b600082601f830112612c1d57612c1c6125d2565b5b8135612c2d848260208601612b81565b91505092915050565b600060208284031215612c4c57612c4b612306565b5b600082013567ffffffffffffffff811115612c6a57612c6961230b565b5b612c7684828501612c08565b91505092915050565b60008060408385031215612c9657612c95612306565b5b6000612ca485828601612553565b9250506020612cb585828601612553565b9150509250929050565b7f4e487b7100000000000000000000000000000000000000000000000000000000600052602260045260246000fd5b60006002820490506001821680612d0657607f821691505b602082108103612d1957612d18612cbf565b5b50919050565b600081905092915050565b60008190508160005260206000209050919050565b60008154612d4c81612cee565b612d568186612d1f565b94506001821660008114612d715760018114612d8657612db9565b60ff1983168652811515820286019350612db9565b612d8f85612d2a565b60005b83811015612db157815481890152600182019150602081019050612d92565b838801955050505b50505092915050565b6000612dcd826123cb565b612dd78185612d1f565b9350612de78185602086016123e7565b80840191505092915050565b6000612dff8285612d3f565b9150612e0b8284612dc2565b91508190509392505050565b6000612e238284612dc2565b915081905092915050565b6000604082019050612e436000830185612512565b612e5060208301846125a8565b9392505050565b600081519050612e6681612a66565b92915050565b600060208284031215612e8257612e81612306565b5b6000612e9084828501612e57565b91505092915050565b7f4e487b7100000000000000000000000000000000000000000000000000000000600052601160045260246000fd5b6000612ed38261247d565b9150612ede8361247d565b9250828203905081811115612ef657612ef5612e99565b5b92915050565b6000612f088285612dc2565b9150612f148284612dc2565b91508190509392505050565b6000612f2b8261247d565b9150612f368361247d565b9250828201905080821115612f4e57612f4d612e99565b5b92915050565b7f457863656564656420746865206c696d69740000000000000000000000000000600082015250565b6000612f8a6012836123d6565b9150612f9582612f54565b602082019050919050565b60006020820190508181036000830152612fb981612f7d565b9050919050565b7f4e6f7420656e6f75676820746f6b656e73206c65667400000000000000000000600082015250565b6000612ff66016836123d6565b915061300182612fc0565b602082019050919050565b6000602082019050818103600083015261302581612fe9565b9050919050565b60006130378261247d565b91506130428361247d565b92508282026130508161247d565b9150828204841483151761306757613066612e99565b5b5092915050565b7f4e6f7420656e6f7567682065746865722073656e740000000000000000000000600082015250565b60006130a46015836123d6565b91506130af8261306e565b602082019050919050565b600060208201905081810360008301526130d381613097565b9050919050565b7f4e487b7100000000000000000000000000000000000000000000000000000000600052603260045260246000fd5b60006020601f8301049050919050565b600082821b905092915050565b6000600883026131567fffffffffffffffffffffffffffffffffffffffffffffffffffffffffffffffff82613119565b6131608683613119565b95508019841693508086168417925050509392505050565b600061319361318e6131898461247d565b612850565b61247d565b9050919050565b6000819050919050565b6131ad83613178565b6131c16131b98261319a565b848454613126565b825550505050565b600090565b6131d66131c9565b6131e18184846131a4565b505050565b5b81811015613205576131fa6000826131ce565b6001810190506131e7565b5050565b601f82111561324a5761321b81612d2a565b61322484613109565b81016020851015613233578190505b61324761323f85613109565b8301826131e6565b50505b505050565b600082821c905092915050565b600061326d6000198460080261324f565b1980831691505092915050565b6000613286838361325c565b9150826002028217905092915050565b61329f826123cb565b67ffffffffffffffff8111156132b8576132b76125dc565b5b6132c28254612cee565b6132cd828285613209565b600060209050601f83116001811461330057600084156132ee578287015190505b6132f8858261327a565b865550613360565b601f19841661330e86612d2a565b60005b8281101561333657848901518255600182019150602085019450602081019050613311565b86831015613353578489015161334f601f89168261325c565b8355505b6001600288020188555050505b505050505050565b60006133738261247d565b91507fffffffffffffffffffffffffffffffffffffffffffffffffffffffffffffffff82036133a5576133a4612e99565b5b600182019050919050565b7f4f776e61626c653a206e6577206f776e657220697320746865207a65726f206160008201527f6464726573730000000000000000000000000000000000000000000000000000602082015250565b600061340c6026836123d6565b9150613417826133b0565b604082019050919050565b6000602082019050818103600083015261343b816133ff565b9050919050565b7f4e487b7100000000000000000000000000000000000000000000000000000000600052601260045260246000fd5b7f4f776e61626c653a2063616c6c6572206973206e6f7420746865206f776e6572600082015250565b60006134a76020836123d6565b91506134b282613471565b602082019050919050565b600060208201905081810360008301526134d68161349a565b9050919050565b60006080820190506134f26000830187612512565b6134ff6020830186612512565b61350c60408301856125a8565b818103606083015261351e81846129d0565b905095945050505050565b6000815190506135388161233c565b92915050565b60006020828403121561355457613553612306565b5b600061356284828501613529565b9150509291505056fea26469706673582212207e91e5da75f11749491275e289c527e004c83515e4be72410012a765031b01f664736f6c6343000811003360806040523480156200001157600080fd5b506040518060400160405280600981526020017f496e63656e7469766500000000000000000000000000000000000000000000008152506040518060400160405280600281526020017f525400000000000000000000000000000000000000000000000000000000000081525081600390816200008f9190620004b7565b508060049081620000a19190620004b7565b505050620000c03369d3c21bcecceda1000000620000c660201b60201c565b620006b9565b600073ffffffffffffffffffffffffffffffffffffffff168273ffffffffffffffffffffffffffffffffffffffff160362000138576040517f08c379a00000000000000000000000000000000000000000000000000000000081526004016200012f90620005ff565b60405180910390fd5b6200014c600083836200023360201b60201c565b806002600082825462000160919062000650565b92505081905550806000808473ffffffffffffffffffffffffffffffffffffffff1673ffffffffffffffffffffffffffffffffffffffff168152602001908152602001600020600082825401925050819055508173ffffffffffffffffffffffffffffffffffffffff16600073ffffffffffffffffffffffffffffffffffffffff167fddf252ad1be2c89b69c2b068fc378daa952ba7f163c4a11628f55a4df523b3ef836040516200021391906200069c565b60405180910390a36200022f600083836200023860201b60201c565b5050565b505050565b505050565b600081519050919050565b7f4e487b7100000000000000000000000000000000000000000000000000000000600052604160045260246000fd5b7f4e487b7100000000000000000000000000000000000000000000000000000000600052602260045260246000fd5b60006002820490506001821680620002bf57607f821691505b602082108103620002d557620002d462000277565b5b50919050565b60008190508160005260206000209050919050565b60006020601f8301049050919050565b600082821b905092915050565b6000600883026200033f7fffffffffffffffffffffffffffffffffffffffffffffffffffffffffffffffff8262000300565b6200034b868362000300565b95508019841693508086168417925050509392505050565b6000819050919050565b6000819050919050565b600062000398620003926200038c8462000363565b6200036d565b62000363565b9050919050565b6000819050919050565b620003b48362000377565b620003cc620003c3826200039f565b8484546200030d565b825550505050565b600090565b620003e3620003d4565b620003f0818484620003a9565b505050565b5b8181101562000418576200040c600082620003d9565b600181019050620003f6565b5050565b601f82111562000467576200043181620002db565b6200043c84620002f0565b810160208510156200044c578190505b620004646200045b85620002f0565b830182620003f5565b50505b505050565b600082821c905092915050565b60006200048c600019846008026200046c565b1980831691505092915050565b6000620004a7838362000479565b9150826002028217905092915050565b620004c2826200023d565b67ffffffffffffffff811115620004de57620004dd62000248565b5b620004ea8254620002a6565b620004f78282856200041c565b600060209050601f8311600181146200052f57600084156200051a578287015190505b62000526858262000499565b86555062000596565b601f1984166200053f86620002db565b60005b82811015620005695784890151825560018201915060208501945060208101905062000542565b8683101562000589578489015162000585601f89168262000479565b8355505b6001600288020188555050505b505050505050565b600082825260208201905092915050565b7f45524332303a206d696e7420746f20746865207a65726f206164647265737300600082015250565b6000620005e7601f836200059e565b9150620005f482620005af565b602082019050919050565b600060208201905081810360008301526200061a81620005d8565b9050919050565b7f4e487b7100000000000000000000000000000000000000000000000000000000600052601160045260246000fd5b60006200065d8262000363565b91506200066a8362000363565b925082820190508082111562000685576200068462000621565b5b92915050565b620006968162000363565b82525050565b6000602082019050620006b360008301846200068b565b92915050565b61122f80620006c96000396000f3fe608060405234801561001057600080fd5b50600436106100a95760003560e01c80633950935111610071578063395093511461016857806370a082311461019857806395d89b41146101c8578063a457c2d7146101e6578063a9059cbb14610216578063dd62ed3e14610246576100a9565b806306fdde03146100ae578063095ea7b3146100cc57806318160ddd146100fc57806323b872dd1461011a578063313ce5671461014a575b600080fd5b6100b6610276565b6040516100c39190610b0c565b60405180910390f35b6100e660048036038101906100e19190610bc7565b610308565b6040516100f39190610c22565b60405180910390f35b61010461032b565b6040516101119190610c4c565b60405180910390f35b610134600480360381019061012f9190610c67565b610335565b6040516101419190610c22565b60405180910390f35b610152610364565b60405161015f9190610cd6565b60405180910390f35b610182600480360381019061017d9190610bc7565b61036d565b60405161018f9190610c22565b60405180910390f35b6101b260048036038101906101ad9190610cf1565b6103a4565b6040516101bf9190610c4c565b60405180910390f35b6101d06103ec565b6040516101dd9190610b0c565b60405180910390f35b61020060048036038101906101fb9190610bc7565b61047e565b60405161020d9190610c22565b60405180910390f35b610230600480360381019061022b9190610bc7565b6104f5565b60405161023d9190610c22565b60405180910390f35b610260600480360381019061025b9190610d1e565b610518565b60405161026d9190610c4c565b60405180910390f35b60606003805461028590610d8d565b80601f01602080910402602001604051908101604052809291908181526020018280546102b190610d8d565b80156102fe5780601f106102d3576101008083540402835291602001916102fe565b820191906000526020600020905b8154815290600101906020018083116102e157829003601f168201915b5050505050905090565b60008061031361059f565b90506103208185856105a7565b600191505092915050565b6000600254905090565b60008061034061059f565b905061034d858285610770565b6103588585856107fc565b60019150509392505050565b60006012905090565b60008061037861059f565b905061039981858561038a8589610518565b6103949190610ded565b6105a7565b600191505092915050565b60008060008373ffffffffffffffffffffffffffffffffffffffff1673ffffffffffffffffffffffffffffffffffffffff168152602001908152602001600020549050919050565b6060600480546103fb90610d8d565b80601f016020809104026020016040519081016040528092919081815260200182805461042790610d8d565b80156104745780601f1061044957610100808354040283529160200191610474565b820191906000526020600020905b81548152906001019060200180831161045757829003601f168201915b5050505050905090565b60008061048961059f565b905060006104978286610518565b9050838110156104dc576040517f08c379a00000000000000000000000000000000000000000000000000000000081526004016104d390610e93565b60405180910390fd5b6104e982868684036105a7565b60019250505092915050565b60008061050061059f565b905061050d8185856107fc565b600191505092915050565b6000600160008473ffffffffffffffffffffffffffffffffffffffff1673ffffffffffffffffffffffffffffffffffffffff16815260200190815260200160002060008373ffffffffffffffffffffffffffffffffffffffff1673ffffffffffffffffffffffffffffffffffffffff16815260200190815260200160002054905092915050565b600033905090565b600073ffffffffffffffffffffffffffffffffffffffff168373ffffffffffffffffffffffffffffffffffffffff1603610616576040517f08c379a000000000000000000000000000000000000000000000000000000000815260040161060d90610f25565b60405180910390fd5b600073ffffffffffffffffffffffffffffffffffffffff168273ffffffffffffffffffffffffffffffffffffffff1603610685576040517f08c379a000000000000000000000000000000000000000000000000000000000815260040161067c90610fb7565b60405180910390fd5b80600160008573ffffffffffffffffffffffffffffffffffffffff1673ffffffffffffffffffffffffffffffffffffffff16815260200190815260200160002060008473ffffffffffffffffffffffffffffffffffffffff1673ffffffffffffffffffffffffffffffffffffffff168152602001908152602001600020819055508173ffffffffffffffffffffffffffffffffffffffff168373ffffffffffffffffffffffffffffffffffffffff167f8c5be1e5ebec7d5bd14f71427d1e84f3dd0314c0f7b2291e5b200ac8c7c3b925836040516107639190610c4c565b60405180910390a3505050565b600061077c8484610518565b90507fffffffffffffffffffffffffffffffffffffffffffffffffffffffffffffffff81146107f657818110156107e8576040517f08c379a00000000000000000000000000000000000000000000000000000000081526004016107df90611023565b60405180910390fd5b6107f584848484036105a7565b5b50505050565b600073ffffffffffffffffffffffffffffffffffffffff168373ffffffffffffffffffffffffffffffffffffffff160361086b576040517f08c379a0000000000000000000000000000000000000000000000000000000008152600401610862906110b5565b60405180910390fd5b600073ffffffffffffffffffffffffffffffffffffffff168273ffffffffffffffffffffffffffffffffffffffff16036108da576040517f08c379a00000000000000000000000000000000000000000000000000000000081526004016108d190611147565b60405180910390fd5b6108e5838383610a72565b60008060008573ffffffffffffffffffffffffffffffffffffffff1673ffffffffffffffffffffffffffffffffffffffff1681526020019081526020016000205490508181101561096b576040517f08c379a0000000000000000000000000000000000000000000000000000000008152600401610962906111d9565b60405180910390fd5b8181036000808673ffffffffffffffffffffffffffffffffffffffff1673ffffffffffffffffffffffffffffffffffffffff16815260200190815260200160002081905550816000808573ffffffffffffffffffffffffffffffffffffffff1673ffffffffffffffffffffffffffffffffffffffff168152602001908152602001600020600082825401925050819055508273ffffffffffffffffffffffffffffffffffffffff168473ffffffffffffffffffffffffffffffffffffffff167fddf252ad1be2c89b69c2b068fc378daa952ba7f163c4a11628f55a4df523b3ef84604051610a599190610c4c565b60405180910390a3610a6c848484610a77565b50505050565b505050565b505050565b600081519050919050565b600082825260208201905092915050565b60005b83811015610ab6578082015181840152602081019050610a9b565b60008484015250505050565b6000601f19601f8301169050919050565b6000610ade82610a7c565b610ae88185610a87565b9350610af8818560208601610a98565b610b0181610ac2565b840191505092915050565b60006020820190508181036000830152610b268184610ad3565b905092915050565b600080fd5b600073ffffffffffffffffffffffffffffffffffffffff82169050919050565b6000610b5e82610b33565b9050919050565b610b6e81610b53565b8114610b7957600080fd5b50565b600081359050610b8b81610b65565b92915050565b6000819050919050565b610ba481610b91565b8114610baf57600080fd5b50565b600081359050610bc181610b9b565b92915050565b60008060408385031215610bde57610bdd610b2e565b5b6000610bec85828601610b7c565b9250506020610bfd85828601610bb2565b9150509250929050565b60008115159050919050565b610c1c81610c07565b82525050565b6000602082019050610c376000830184610c13565b92915050565b610c4681610b91565b82525050565b6000602082019050610c616000830184610c3d565b92915050565b600080600060608486031215610c8057610c7f610b2e565b5b6000610c8e86828701610b7c565b9350506020610c9f86828701610b7c565b9250506040610cb086828701610bb2565b9150509250925092565b600060ff82169050919050565b610cd081610cba565b82525050565b6000602082019050610ceb6000830184610cc7565b92915050565b600060208284031215610d0757610d06610b2e565b5b6000610d1584828501610b7c565b91505092915050565b60008060408385031215610d3557610d34610b2e565b5b6000610d4385828601610b7c565b9250506020610d5485828601610b7c565b9150509250929050565b7f4e487b7100000000000000000000000000000000000000000000000000000000600052602260045260246000fd5b60006002820490506001821680610da557607f821691505b602082108103610db857610db7610d5e565b5b50919050565b7f4e487b7100000000000000000000000000000000000000000000000000000000600052601160045260246000fd5b6000610df882610b91565b9150610e0383610b91565b9250828201905080821115610e1b57610e1a610dbe565b5b92915050565b7f45524332303a2064656372656173656420616c6c6f77616e63652062656c6f7760008201527f207a65726f000000000000000000000000000000000000000000000000000000602082015250565b6000610e7d602583610a87565b9150610e8882610e21565b604082019050919050565b60006020820190508181036000830152610eac81610e70565b9050919050565b7f45524332303a20617070726f76652066726f6d20746865207a65726f2061646460008201527f7265737300000000000000000000000000000000000000000000000000000000602082015250565b6000610f0f602483610a87565b9150610f1a82610eb3565b604082019050919050565b60006020820190508181036000830152610f3e81610f02565b9050919050565b7f45524332303a20617070726f766520746f20746865207a65726f20616464726560008201527f7373000000000000000000000000000000000000000000000000000000000000602082015250565b6000610fa1602283610a87565b9150610fac82610f45565b604082019050919050565b60006020820190508181036000830152610fd081610f94565b9050919050565b7f45524332303a20696e73756666696369656e7420616c6c6f77616e6365000000600082015250565b600061100d601d83610a87565b915061101882610fd7565b602082019050919050565b6000602082019050818103600083015261103c81611000565b9050919050565b7f45524332303a207472616e736665722066726f6d20746865207a65726f20616460008201527f6472657373000000000000000000000000000000000000000000000000000000602082015250565b600061109f602583610a87565b91506110aa82611043565b604082019050919050565b600060208201905081810360008301526110ce81611092565b9050919050565b7f45524332303a207472616e7366657220746f20746865207a65726f206164647260008201527f6573730000000000000000000000000000000000000000000000000000000000602082015250565b6000611131602383610a87565b915061113c826110d5565b604082019050919050565b6000602082019050818103600083015261116081611124565b9050919050565b7f45524332303a207472616e7366657220616d6f756e742065786365656473206260008201527f616c616e63650000000000000000000000000000000000000000000000000000602082015250565b60006111c3602683610a87565b91506111ce82611167565b604082019050919050565b600060208201905081810360008301526111f2816111b6565b905091905056fea264697066735822122036ca988a1f783f398710aa8e8aa8db5e2777f1e5b28a7df994754199abcdb4be64736f6c63430008110033",
  "linkReferences": {},
  "deployedLinkReferences": {}
}